:020000040800F2
:10000000680600208901000891010008930100089A
:100010009501000897010008990100080000000000
:100020000000000000000000000000009B0100082C
:100030009D010008000000009F010008A1010008C8
:10004000A3010008A5010008A701000800000000A6
:1000500000000000A9010008AB010008AD01000884
:10006000AF01000800000000B1010008B301000862
:10007000B501000800000000B7010008B901000840
:10008000BB010008BD01000800000000BF0100081E
:10009000C101000800000000000000000000000096
:1000A000000000000000000000000000C301000884
:1000B000C5010008C7010008C9010008CB010008FC
:1000C00000F002F800F050F814A696E8000CB244D4
:1000D000B344DA4501D100F047F8BAE80F000FA6A3
:1000E00096E83000A5EB040504EB0607AAEB07042D
:1000F000A7F101074FEA15154FEA3414A4F10104E2
:10010000AC4201D300F030F813F0010F18BFFB1A16
:1001100043F0010300F001F8DBE718472404000076
:1001200044040000103A24BF78C878C1FAD85207B6
:1001300024BF30C830C144BF04680C607047000061
:10014000704700000023002400250026103A28BF35
:1001500078C1FBD8520728BF30C148BF0B60704739
:100160001FB51FBD10B510BD00F045F81146FFF7D3
:10017000F7FF00F0A7F900F063F803B4FFF7F2FF10
:1001800003BC00F06BF80000134880471348004799
:10019000FEE7FEE7FEE7FEE7FEE7FEE7FEE7FEE737
:1001A000FEE7FEE7FEE7FEE7FEE7FEE7FEE7FEE727
:1001B000FEE7FEE7FEE7FEE7FEE7FEE7FEE7FEE717
:1001C000FEE7FEE7FEE7FEE7FEE7FEE70448054937
:1001D000054A064B7047000029040008C1000008CA
:1001E00068000020680600206802002068020020E5
:1001F000704770477047754600F02CF8AE46050012
:100200006946534620F00700854618B020B5FFF731
:10021000DDFFBDE820404FF000064FF000074FF033
:1002200000084FF0000BAC46ACE8C009ACE8C009D0
:10023000ACE8C009ACE8C00921F007018D46704761
:1002400010B50446AFF300802046BDE81040FFF72C
:1002500094BF0000004870470800002001491820A2
:10026000ABBEFEE726000200704700002DE9F04F0C
:1002700088B0D0F804A082680392C2680292026932
:10028000049242690592826901900692C0690790C2
:1002900008880028009056D0012203244FF001184E
:1002A0004FF0000C4FF0000B4FF0000E0AE000BFC3
:1002B0005200A4004FEA48080EF1010E40080CF16C
:1002C000020C42D05FEAC079F2D08D782AEA0207A8
:1002D00005FA0EF545EA070A0D7A039F05FA0CF5B3
:1002E000A7433D4303958D7A029F05FA0EF5974388
:1002F0003D43CE780295049D0B790EF1100725EA57
:100300000805BE40354303FA0EF32B4304934B79A3
:10031000059D8E7925EA0805BB402B4306FA0EF5AC
:100320002B4305934B7A069D03FA0CF3A5432B430D
:100330000693CB79079D03FA0EF395432B434BEAC3
:10034000040B0793B4E74FF0000B0021019EC4F2A9
:100350000C01002700228E4208BF40F2FF3708BF81
:100360001F2200984FF0FF3442EA000302988E42A9
:1003700020EA0208039808BF6FF01F1420EA070E56
:1003800004984BEA070900EA04017068059D984348
:100390007060B0682C40069D20EA0900B060BD4343
:1003A000F068079F2AEA020C27EA02029843F060ED
:1003B0003161B5617461F261C6F80C80C6F808E07D
:1003C000C6F804C008B0BDE8F08F00000022C4F2F7
:1003D0000C029042026808BF41F01F0122EA0101AD
:1003E00001607047026811430022C4F20C0290427F
:1003F00008BF21F01F010160704700004FF6FF7138
:1004000001800021C0F80210C0F806108172704708
:10041000002940F21C01C4F202010A680CBF22EA62
:10042000000010430860704740F200014EF6085289
:100430000C20C0F60001CEF20002C4F202001160EE
:10044000102101610021016040F8081C40F8041CE3
:1004500041608160C16041618161C1610162016887
:10046000016840F60012C9070168C0F23D0241F27E
:10047000002C04BF41F20022C0F27A024907C0F208
:100480007A0C05D550F8083CC3F3032301335A43D3
:100490000368C3F30123DFE803F00E02090C0068D0
:1004A000C0F303100130B2FBF0FC04E04FF4004C49
:1004B00001E049F6404C40F20000C2F20000C0F8F2
:1004C00000C0704784B000244FF480000121C4F2C2
:1004D0000B040126FFF79CFF01AD2846FFF78EFFB6
:1004E0000F20ADF8040040F20110ADF80D002046D9
:1004F00029468DF80660FFF7B9FE40F20405C2F206
:10050000000500BF20460A21FFF76CFF20460521A9
:10051000FFF75CFF2868012803DB00BF013800BF3C
:10052000FCD120460A21FFF751FF20460521FFF7A5
:1005300059FF28680128E5DB013800BFFCD1E1E75D
:1005400060050008000000200800000024010008E9
:10055000680500080800002060060000440100084B
:0805600000127A0040420F0076
:04000005080000C12E
:00000001FF
